:0200000087284F
:08000800FF00030E8312031335
:10001000A0000A0EA100040EA2008A110A128A286A
:10002000A608031D14280800993000000000FF3EB8
:10003000031D15280000A60B14280800FA30A6009E
:100040001020FA30A6001020FA30A6001020FA3056
:10005000A6001020A50B1E280800831203138C1E77
:100060002D281A08AA0008000C1E3428250899001B
:10007000080083168717071783122508831699002F
:1000800026309800903083129800080083120313E2
:100090001F151F194928A6011E08A5000030A60536
:1000A0002508FF39A70083161E088312A60408003E
:1000B0008316031305148E309F00413083129F0076
:1000C000080083160313860101308312A50039202E
:1000D00058208613462046202D202A08CA3A031DA0
:1000E0006C28C0308B0083168C1246202608A30093
:1000F0002708A40083168C1601308312A5001E2049
:100100002408A50034202308A500342073288A1170
:100110000A126128831203138C1EA0282D202A089E
:10012000A800C0302805A9002908403A031D9F28CF
:100130002830280503199E2886179F2886138C12BD
:10014000220E8400210E8A00200E8300FF0E7F0EF7
:020150000900A4
:02400E00713F00
:00000001FF
