:02000000FA28DC
:08000800FF00030E8312031335
:10001000A0000A0EA100040EA2008A110A12FD28F7
:10002000A608031D14280800993000000000FF3EB8
:10003000031D15280000A60B14280800FA30A6009E
:100040001020FA30A6001020FA30A6001020FA3056
:10005000A6001020A50B1E280800AE08031D392895
:100060000030B1001730B0000030B3001530B200DE
:1000700045280030B6001D30B0003608B100003011
:10008000B6001B30B2003608B3002F08003A03193F
:100090005028013A03195828033A031964286F2895
:1000A0008313311883173008840000308000080063
:1000B000AE08031D5F28E630B400B5016F28CD30CF
:1000C000B4000130B5006F28AE08031D6C28CD3098
:1000D000B4000130B5006F28E630B400B501340E2D
:1000E000F039B6003030B605831331188317300865
:1000F0008400360880003408B600350CB700B60C12
:10010000B70CB60C831333188317320884003608F3
:100110008000831331188317300884000C3080046A
:100120000800831203138C1E91281A08AD000800E2
:100130000C1E98282C0899000800831687170717AB
:100140008312250883169900263098009030831278
:100150009800080083160313871007118312871075
:100160000711FF30831692000630831292000800B8
:10017000831203131F151F19BB28A6011E08A50013
:100180000030A6052508FF39A70083161E08831234
:10019000A60408008316031305148E309F00413017
:1001A00083129F000800831603138601AA20CA2029
:1001B0000130A5009D20AE01AF012D200130AE0021
:1001C000AF012D208613B820B82091202D08CA3AFF
:1001D000031DE528C0308B0083168C12B82026083A
:1001E000A3002708A40083168C1601308312A500F3
:1001F0001E20EC288A110A12D328831203138C1EA6
:10020000422991202D08A800C0302805AB002B08FA
:10021000003A03191229403A03193329C03A031945
:100220003B294129A81E17290130A9001829A90135
:10023000A80CA80CA80C1F30A8050330A80528039B
:10024000031D25290130AA002D292808023A031D83
:100250002C290230AA002D29AA012908AE002A085B
:10026000AF002D2041292830280503193929861788
:100270004129861341292408AC0098202308AC00AA
:1002800098208C12220E8400210E8A00200E8300FA
:06029000FF0E7F0E0900C5
:02400E00713F00
:00000001FF
