:02000000402A94
:08000800FF00030E8312031335
:10001000A0000A0EA100040EA2008A110A12522AA0
:10002000B208031D14280800993000000000FF3EAC
:10003000031D15280000B20B14280800FA30B20086
:100040001020FA30B2001020FA30B2001020FA303E
:10005000B2001020B10B1E280800C508031D3B2864
:100060000030C8001730C7000030CA001530C90082
:100070004608AF0049280030CD001D30C7004D08AC
:10008000C8000030CD001B30C9004D08CA0046082A
:10009000B0004608003A03195428013A03195C28B5
:1000A000033A0319692875288313481883174708EA
:1000B0008400003080000800C508031D642825085E
:1000C000CB002608CC0075282908CB002A08CC00D4
:1000D0007528C508031D71282708CB002808CC0007
:1000E00075282B08CB002C08CC004B0EF039CD0026
:1000F0003030CD05831348188317470884004D0816
:1001000080004B08CD004C0CCE00CD0CCE0CCD0C9D
:1001100083134A188317490884004D08800083130D
:1001200048188317470884000C30800408004308EF
:1001300003178D000313440803178C008B138316D9
:100140008C130C1555308D00AA308D008C148C1832
:10015000A7280C118B170800FF3040020318080075
:100160004008C3004108C400972083120313400ACB
:10017000C3004208C400972008000C1EBD283D089B
:100180009900080083120313981CC92898101812AC
:1001900018168C1EC9281A08BD000800BD08031DCA
:1001A0001B29BE08031DF428BF080319E2282508EF
:1001B000003C031826080319ED28A5080319A60317
:1001C000A503ED2803302602031DE828FF30250291
:1001D0000318ED28A50A0319A60AC0012508C100C5
:1001E0002608C200AC201429BF08031903290330D4
:1001F0002802031DFD28FF30270203180D29A70A36
:100200000319A80A0D292708003C03182808031918
:100210000D29A7080319A803A7030230C000270867
:10022000C1002808C200AC2083120313C5012F08A7
:10023000C6002D200800BE08031D3F29BF08031972
:100240002D2903302A02031D2729FF302902031814
:100250003729A90A0319AA0A37292908003C0318D3
:100260002A0803193729A9080319AA03A903043086
:10027000C0002908C1002A08C200AC205F29BF08BD
:1002800003194D292B08003C03182C080319582981
:10029000AB080319AC03AB03582903302C02031D30
:1002A0005329FF302B0203185829AB0A0319AC0A53
:1002B0000630C0002B08C1002C08C200AC20013061
:1002C00083120313C5003008C6002D20080036082D
:1002D00003178D0083168C130C140C186D298312D0
:1002E0000C080313B7000800B201B301FF3031025C
:1002F00003188D293108B60067213708B500310A87
:10030000B60067213708B400B6013408B7003508D5
:10031000B6043608B2003708B3003208B600330816
:10032000B700080083168717071783123108831652
:1003300099002630980090308312980008008316A8
:10034000031307118710831207118710B10174215D
:100350003608A5003708A6002508FF3AFF30031924
:100360002606031DE529C001C830C100C201AC202A
:10037000023083120313C000F430C1000130C20008
:10038000AC20043083120313C0002030C1000330BE
:10039000C200AC20063083120313C0002C30C10011
:1003A0000130C200AC20C83083120313A500A6019F
:1003B000F430A7000130A8002030A9000330AA00C3
:1003C0002C30AB000130AC00FA290230B1007421AE
:1003D0003608A7003708A8000430B1007421360899
:1003E000A9003708AA000630B10074213608AB0016
:1003F0003708AC00FF30831692000630831292005B
:100400000800831203131F151F19042AB2011E08C6
:10041000B1000030B2053108FF39B30083161E0861
:100420008312B20408008316031305148E309F0054
:10043000413083129F000800831603138601831244
:1004400086139F2113220130B1009221C501C601FC
:100450002D200130C500C6012D2086130122012266
:10046000C0308B0083168C1201223208A30033089F
:10047000A40083168C1601308312B1001E20322A8C
:10048000831203132D10A301A401A501A601A70146
:10049000A801A901AA01AB01AC01AF01B0018A1109
:1004A0000A121C2A831203132D18582AAE012D1488
:1004B0008C1EC52AC2203D08B800AE08031D682A5C
:1004C0003808A53A031D662A0130AE008C12C52AF1
:1004D000AE01C0303805BC003C08003A03197A2A46
:1004E000403A03199B2AC03A0319A32A403A031938
:1004F000AA2AC42AB81E7F2A0130B900802AB9016D
:10050000B80CB80CB80C1F30B8050330B805380368
:10051000031D8D2A0130BA00952A3808023A031DBE
:10052000942A0230BA00952ABA013908C5003A085F
:10053000C6002D20C42A283038050319A12A8617A1
:10054000C42A8613C42A2408BD00BD202308BD0088
:10055000BD20C42AB81EAF2A0130B900B02AB901A3
:10056000381EB52A0130BB00B62ABB010830B805D9
:10057000B80CB80CB80C1F30B8053908BD003B08E2
:10058000BE003808BF00CE208C12220E8400210E3F
:0C0590008A00200E8300FF0E7F0E090081
:02400E00713F00
:00000001FF
