:02000000FD28D9
:08000800FF00030E8312031335
:10001000A0000A0EA100040EA2008A110A120029F3
:10002000A608031D14280800993000000000FF3EB8
:10003000031D15280000A60B14280800FA30A6009E
:100040001020FA30A6001020FA30A6001020FA3056
:10005000A6001020A50B1E280800AE08031D392895
:100060000030B1001730B0000030B3001530B200DE
:1000700045280030B6001D30B0003608B100003011
:10008000B6001B30B2003608B3002F08003A03193F
:100090005028013A03195828033A03196428702894
:1000A0008313311883173008840000308000080063
:1000B000AE08031D5F28C830B400B5017028203099
:1000C000B4000330B5007028AE08031D6C28F4306E
:1000D000B4000130B50070282C30B4000130B500F8
:1000E000340EF039B6003030B6058313311883175B
:1000F00030088400360880003408B600350CB7009C
:10010000B60CB70CB60C831333188317320884006F
:1001100036088000831331188317300884000C30B0
:1001200080040800831203138C1E92281A08AD0065
:1001300008000C1E99282C089900080083168717C0
:1001400007178312250883169900263098009030EF
:100150008312980008008316031387100711831277
:1001600087100711FF308316920006308312920029
:100170000800831203131F151F19BC28A6011E08AF
:10018000A5000030A6052508FF39A70083161E0824
:100190008312A60408008316031305148E309F00F3
:1001A000413083129F0008008316031386018312D7
:1001B0008613AB20CB200130A5009E20AE01AF01FD
:1001C0002D200130AE00AF012D208613B920B920BB
:1001D00092202D08CA3A031DE828C0308B008316F0
:1001E0008C12B9202608A3002708A40083168C16B9
:1001F00001308312A5001E20EF288A110A12D4288C
:10020000831203138C1E452992202D08A800C030AC
:100210002805AB002B08003A03191529403A0319A9
:100220003629C03A03193E294429A81E1A2901304B
:10023000A9001B29A901A80CA80CA80C1F30A8050F
:100240000330A8052803031D28290130AA003029FE
:100250002808023A031D2F290230AA003029AA01DA
:100260002908AE002A08AF002D204429283028058F
:1002700003193C2986174429861344292408AC0015
:1002800099202308AC0099208C12220E8400210EA4
:0C0290008A00200E8300FF0E7F0E090084
:02400E00713F00
:00000001FF
